{
  "contractName": "InvoiceGovernanceContract",
  "abi": [
    {
      "constant": false,
      "inputs": [
        {
          "name": "ownerPublicKey",
          "type": "address"
        },
        {
          "name": "name",
          "type": "string"
        }
      ],
      "name": "registerManufacturer",
      "outputs": [
        {
          "name": "index",
          "type": "uint256"
        }
      ],
      "payable": true,
      "stateMutability": "payable",
      "type": "function",
      "signature": "0x9e4e6634"
    },
    {
      "constant": true,
      "inputs": [],
      "name": "getCurrentManufacturer",
      "outputs": [
        {
          "name": "",
          "type": "address"
        },
        {
          "name": "",
          "type": "string"
        }
      ],
      "payable": false,
      "stateMutability": "view",
      "type": "function",
      "signature": "0xc1aceff8"
    },
    {
      "constant": true,
      "inputs": [],
      "name": "getAllManufacturers",
      "outputs": [
        {
          "name": "",
          "type": "address[]"
        }
      ],
      "payable": false,
      "stateMutability": "view",
      "type": "function",
      "signature": "0xddba07a4"
    },
    {
      "constant": false,
      "inputs": [
        {
          "name": "seller_address",
          "type": "address"
        },
        {
          "name": "seller_name",
          "type": "string"
        }
      ],
      "name": "registerSupplier",
      "outputs": [
        {
          "name": "",
          "type": "bool"
        }
      ],
      "payable": true,
      "stateMutability": "payable",
      "type": "function",
      "signature": "0xeadfd0df"
    },
    {
      "constant": true,
      "inputs": [],
      "name": "getSuppliers",
      "outputs": [
        {
          "name": "suppliers",
          "type": "address[]"
        }
      ],
      "payable": false,
      "stateMutability": "view",
      "type": "function",
      "signature": "0x43516832"
    },
    {
      "constant": false,
      "inputs": [],
      "name": "createPurchaseOrder",
      "outputs": [
        {
          "name": "",
          "type": "uint256"
        }
      ],
      "payable": true,
      "stateMutability": "payable",
      "type": "function",
      "signature": "0x71a9a466"
    },
    {
      "constant": true,
      "inputs": [],
      "name": "getAllPurchaseorders",
      "outputs": [
        {
          "name": "",
          "type": "uint256[]"
        }
      ],
      "payable": false,
      "stateMutability": "view",
      "type": "function",
      "signature": "0x4e798030"
    },
    {
      "constant": false,
      "inputs": [
        {
          "name": "manufacturer_address",
          "type": "address"
        },
        {
          "name": "seller_address",
          "type": "address"
        },
        {
          "name": "po_number",
          "type": "uint256"
        },
        {
          "name": "invoiceNumber",
          "type": "uint256"
        }
      ],
      "name": "raiseInvoice",
      "outputs": [
        {
          "name": "",
          "type": "uint256"
        }
      ],
      "payable": true,
      "stateMutability": "payable",
      "type": "function",
      "signature": "0xf1290451"
    }
  ],
  "bytecode": "0x6080604052600060025534801561001557600080fd5b506146dc806100256000396000f3fe60806040526004361061008e576000357c0100000000000000000000000000000000000000000000000000000000900463ffffffff16806343516832146100935780634e798030146100be57806371a9a466146100e95780639e4e663414610107578063c1aceff814610137578063ddba07a414610163578063eadfd0df1461018e578063f1290451146101be575b600080fd5b34801561009f57600080fd5b506100a86101ee565b6040516100b59190612753565b60405180910390f35b3480156100ca57600080fd5b506100d3610595565b6040516100e09190612775565b60405180910390f35b6100f161093c565b6040516100fe91906127b2565b60405180910390f35b610121600480360361011c9190810190612436565b610d1a565b60405161012e91906127b2565b60405180910390f35b34801561014357600080fd5b5061014c6112af565b60405161015a929190612723565b60405180910390f35b34801561016f57600080fd5b50610178611497565b6040516101859190612753565b60405180910390f35b6101a860048036036101a39190810190612436565b611776565b6040516101b59190612797565b60405180910390f35b6101d860048036036101d391908101906123d3565b611b02565b6040516101e591906127b2565b60405180910390f35b6060600073ffffffffffffffffffffffffffffffffffffffff166000803373ffffffffffffffffffffffffffffffffffffffff1673ffffffffffffffffffffffffffffffffffffffff16815260200190815260200160002060000160009054906101000a900473ffffffffffffffffffffffffffffffffffffffff1673ffffffffffffffffffffffffffffffffffffffff161415151561028d57600080fd5b61029561202b565b6000803373ffffffffffffffffffffffffffffffffffffffff1673ffffffffffffffffffffffffffffffffffffffff16815260200190815260200160002060a060405190810160405290816000820160009054906101000a900473ffffffffffffffffffffffffffffffffffffffff1673ffffffffffffffffffffffffffffffffffffffff1673ffffffffffffffffffffffffffffffffffffffff168152602001600182018054600181600116156101000203166002900480601f0160208091040260200160405190810160405280929190818152602001828054600181600116156101000203166002900480156103ce5780601f106103a3576101008083540402835291602001916103ce565b820191906000526020600020905b8154815290600101906020018083116103b157829003601f168201915b505050505081526020016002820160009054906101000a900473ffffffffffffffffffffffffffffffffffffffff1673ffffffffffffffffffffffffffffffffffffffff1673ffffffffffffffffffffffffffffffffffffffff1681526020016003820160009054906101000a900473ffffffffffffffffffffffffffffffffffffffff1673ffffffffffffffffffffffffffffffffffffffff1673ffffffffffffffffffffffffffffffffffffffff1681526020016004820160009054906101000a900473ffffffffffffffffffffffffffffffffffffffff1673ffffffffffffffffffffffffffffffffffffffff1673ffffffffffffffffffffffffffffffffffffffff168152505090506000816040015190508073ffffffffffffffffffffffffffffffffffffffff16632c1b5c66336040518263ffffffff167c010000000000000000000000000000000000000000000000000000000002815260040161053991906126a1565b60006040518083038186803b15801561055157600080fd5b505afa158015610565573d6000803e3d6000fd5b505050506040513d6000823e3d601f19601f8201168201806040525061058e919081019061248a565b9250505090565b6060600073ffffffffffffffffffffffffffffffffffffffff166000803373ffffffffffffffffffffffffffffffffffffffff1673ffffffffffffffffffffffffffffffffffffffff16815260200190815260200160002060000160009054906101000a900473ffffffffffffffffffffffffffffffffffffffff1673ffffffffffffffffffffffffffffffffffffffff161415151561063457600080fd5b61063c61202b565b6000803373ffffffffffffffffffffffffffffffffffffffff1673ffffffffffffffffffffffffffffffffffffffff16815260200190815260200160002060a060405190810160405290816000820160009054906101000a900473ffffffffffffffffffffffffffffffffffffffff1673ffffffffffffffffffffffffffffffffffffffff1673ffffffffffffffffffffffffffffffffffffffff168152602001600182018054600181600116156101000203166002900480601f0160208091040260200160405190810160405280929190818152602001828054600181600116156101000203166002900480156107755780601f1061074a57610100808354040283529160200191610775565b820191906000526020600020905b81548152906001019060200180831161075857829003601f168201915b505050505081526020016002820160009054906101000a900473ffffffffffffffffffffffffffffffffffffffff1673ffffffffffffffffffffffffffffffffffffffff1673ffffffffffffffffffffffffffffffffffffffff1681526020016003820160009054906101000a900473ffffffffffffffffffffffffffffffffffffffff1673ffffffffffffffffffffffffffffffffffffffff1673ffffffffffffffffffffffffffffffffffffffff1681526020016004820160009054906101000a900473ffffffffffffffffffffffffffffffffffffffff1673ffffffffffffffffffffffffffffffffffffffff1673ffffffffffffffffffffffffffffffffffffffff168152505090506000816060015190508073ffffffffffffffffffffffffffffffffffffffff16632a1b5f6c336040518263ffffffff167c01000000000000000000000000000000000000000000000000000000000281526004016108e091906126a1565b60006040518083038186803b1580156108f857600080fd5b505afa15801561090c573d6000803e3d6000fd5b505050506040513d6000823e3d601f19601f8201168201806040525061093591908101906124cb565b9250505090565b60008073ffffffffffffffffffffffffffffffffffffffff166000803373ffffffffffffffffffffffffffffffffffffffff1673ffffffffffffffffffffffffffffffffffffffff16815260200190815260200160002060000160009054906101000a900473ffffffffffffffffffffffffffffffffffffffff1673ffffffffffffffffffffffffffffffffffffffff16141515156109da57600080fd5b6109e261202b565b6000803373ffffffffffffffffffffffffffffffffffffffff1673ffffffffffffffffffffffffffffffffffffffff16815260200190815260200160002060a060405190810160405290816000820160009054906101000a900473ffffffffffffffffffffffffffffffffffffffff1673ffffffffffffffffffffffffffffffffffffffff1673ffffffffffffffffffffffffffffffffffffffff168152602001600182018054600181600116156101000203166002900480601f016020809104026020016040519081016040528092919081815260200182805460018160011615610100020316600290048015610b1b5780601f10610af057610100808354040283529160200191610b1b565b820191906000526020600020905b815481529060010190602001808311610afe57829003601f168201915b505050505081526020016002820160009054906101000a900473ffffffffffffffffffffffffffffffffffffffff1673ffffffffffffffffffffffffffffffffffffffff1673ffffffffffffffffffffffffffffffffffffffff1681526020016003820160009054906101000a900473ffffffffffffffffffffffffffffffffffffffff1673ffffffffffffffffffffffffffffffffffffffff1673ffffffffffffffffffffffffffffffffffffffff1681526020016004820160009054906101000a900473ffffffffffffffffffffffffffffffffffffffff1673ffffffffffffffffffffffffffffffffffffffff1673ffffffffffffffffffffffffffffffffffffffff168152505090506000816060015190506060610c3b6101ee565b90506000610c498251611f9a565b905060008282815181101515610c5b57fe5b9060200190602002015190508373ffffffffffffffffffffffffffffffffffffffff16632b48bcbb33836040518363ffffffff167c0100000000000000000000000000000000000000000000000000000000028152600401610cbe9291906126bc565b602060405180830381600087803b158015610cd857600080fd5b505af1158015610cec573d6000803e3d6000fd5b505050506040513d601f19601f82011682018060405250610d109190810190612535565b9550505050505090565b60008073ffffffffffffffffffffffffffffffffffffffff168373ffffffffffffffffffffffffffffffffffffffff1614151515610d5757600080fd5b606082905060008151111515610d6c57600080fd5b600073ffffffffffffffffffffffffffffffffffffffff166000808673ffffffffffffffffffffffffffffffffffffffff1673ffffffffffffffffffffffffffffffffffffffff16815260200190815260200160002060000160009054906101000a900473ffffffffffffffffffffffffffffffffffffffff1673ffffffffffffffffffffffffffffffffffffffff16141515610e0857600080fd5b60a0604051908101604052808573ffffffffffffffffffffffffffffffffffffffff168152602001848152602001610e3e6120b3565b604051809103906000f080158015610e5a573d6000803e3d6000fd5b5073ffffffffffffffffffffffffffffffffffffffff168152602001610e7e6120c3565b604051809103906000f080158015610e9a573d6000803e3d6000fd5b5073ffffffffffffffffffffffffffffffffffffffff168152602001610ebe6120d3565b604051809103906000f080158015610eda573d6000803e3d6000fd5b5073ffffffffffffffffffffffffffffffffffffffff168152506000808673ffffffffffffffffffffffffffffffffffffffff1673ffffffffffffffffffffffffffffffffffffffff16815260200190815260200160002060008201518160000160006101000a81548173ffffffffffffffffffffffffffffffffffffffff021916908373ffffffffffffffffffffffffffffffffffffffff1602179055506020820151816001019080519060200190610f959291906120e3565b5060408201518160020160006101000a81548173ffffffffffffffffffffffffffffffffffffffff021916908373ffffffffffffffffffffffffffffffffffffffff16021790555060608201518160030160006101000a81548173ffffffffffffffffffffffffffffffffffffffff021916908373ffffffffffffffffffffffffffffffffffffffff16021790555060808201518160040160006101000a81548173ffffffffffffffffffffffffffffffffffffffff021916908373ffffffffffffffffffffffffffffffffffffffff16021790555090505060016000808673ffffffffffffffffffffffffffffffffffffffff1673ffffffffffffffffffffffffffffffffffffffff168152602001908152602001600020908060018154018082558091505090600182039060005260206000209060050201600090919290919091506000820160009054906101000a900473ffffffffffffffffffffffffffffffffffffffff168160000160006101000a81548173ffffffffffffffffffffffffffffffffffffffff021916908373ffffffffffffffffffffffffffffffffffffffff16021790555060018201816001019080546001816001161561010002031660029004611167929190612163565b506002820160009054906101000a900473ffffffffffffffffffffffffffffffffffffffff168160020160006101000a81548173ffffffffffffffffffffffffffffffffffffffff021916908373ffffffffffffffffffffffffffffffffffffffff1602179055506003820160009054906101000a900473ffffffffffffffffffffffffffffffffffffffff168160030160006101000a81548173ffffffffffffffffffffffffffffffffffffffff021916908373ffffffffffffffffffffffffffffffffffffffff1602179055506004820160009054906101000a900473ffffffffffffffffffffffffffffffffffffffff168160040160006101000a81548173ffffffffffffffffffffffffffffffffffffffff021916908373ffffffffffffffffffffffffffffffffffffffff16021790555050505060018054905091505092915050565b60006060600073ffffffffffffffffffffffffffffffffffffffff166000803373ffffffffffffffffffffffffffffffffffffffff1673ffffffffffffffffffffffffffffffffffffffff16815260200190815260200160002060000160009054906101000a900473ffffffffffffffffffffffffffffffffffffffff1673ffffffffffffffffffffffffffffffffffffffff161415151561135057600080fd5b6000803373ffffffffffffffffffffffffffffffffffffffff1673ffffffffffffffffffffffffffffffffffffffff16815260200190815260200160002060000160009054906101000a900473ffffffffffffffffffffffffffffffffffffffff166000803373ffffffffffffffffffffffffffffffffffffffff1673ffffffffffffffffffffffffffffffffffffffff168152602001908152602001600020600101808054600181600116156101000203166002900480601f0160208091040260200160405190810160405280929190818152602001828054600181600116156101000203166002900480156114885780601f1061145d57610100808354040283529160200191611488565b820191906000526020600020905b81548152906001019060200180831161146b57829003601f168201915b50505050509050915091509091565b6060806001805490506040519080825280602002602001820160405280156114ce5781602001602082028038833980820191505090505b50905060008090505b60018054905081101561176e576114ec61202b565b6001828154811015156114fb57fe5b906000526020600020906005020160a060405190810160405290816000820160009054906101000a900473ffffffffffffffffffffffffffffffffffffffff1673ffffffffffffffffffffffffffffffffffffffff1673ffffffffffffffffffffffffffffffffffffffff168152602001600182018054600181600116156101000203166002900480601f0160208091040260200160405190810160405280929190818152602001828054600181600116156101000203166002900480156116045780601f106115d957610100808354040283529160200191611604565b820191906000526020600020905b8154815290600101906020018083116115e757829003601f168201915b505050505081526020016002820160009054906101000a900473ffffffffffffffffffffffffffffffffffffffff1673ffffffffffffffffffffffffffffffffffffffff1673ffffffffffffffffffffffffffffffffffffffff1681526020016003820160009054906101000a900473ffffffffffffffffffffffffffffffffffffffff1673ffffffffffffffffffffffffffffffffffffffff1673ffffffffffffffffffffffffffffffffffffffff1681526020016004820160009054906101000a900473ffffffffffffffffffffffffffffffffffffffff1673ffffffffffffffffffffffffffffffffffffffff1673ffffffffffffffffffffffffffffffffffffffff168152505090508060000151838381518110151561172457fe5b9060200190602002019073ffffffffffffffffffffffffffffffffffffffff16908173ffffffffffffffffffffffffffffffffffffffff16815250505080806001019150506114d7565b508091505090565b60008073ffffffffffffffffffffffffffffffffffffffff166000803373ffffffffffffffffffffffffffffffffffffffff1673ffffffffffffffffffffffffffffffffffffffff16815260200190815260200160002060000160009054906101000a900473ffffffffffffffffffffffffffffffffffffffff1673ffffffffffffffffffffffffffffffffffffffff161415151561181457600080fd5b61181c61202b565b6000803373ffffffffffffffffffffffffffffffffffffffff1673ffffffffffffffffffffffffffffffffffffffff16815260200190815260200160002060a060405190810160405290816000820160009054906101000a900473ffffffffffffffffffffffffffffffffffffffff1673ffffffffffffffffffffffffffffffffffffffff1673ffffffffffffffffffffffffffffffffffffffff168152602001600182018054600181600116156101000203166002900480601f0160208091040260200160405190810160405280929190818152602001828054600181600116156101000203166002900480156119555780601f1061192a57610100808354040283529160200191611955565b820191906000526020600020905b81548152906001019060200180831161193857829003601f168201915b505050505081526020016002820160009054906101000a900473ffffffffffffffffffffffffffffffffffffffff1673ffffffffffffffffffffffffffffffffffffffff1673ffffffffffffffffffffffffffffffffffffffff1681526020016003820160009054906101000a900473ffffffffffffffffffffffffffffffffffffffff1673ffffffffffffffffffffffffffffffffffffffff1673ffffffffffffffffffffffffffffffffffffffff1681526020016004820160009054906101000a900473ffffffffffffffffffffffffffffffffffffffff1673ffffffffffffffffffffffffffffffffffffffff1673ffffffffffffffffffffffffffffffffffffffff168152505090506000816040015190508073ffffffffffffffffffffffffffffffffffffffff1663b17dc4633387876040518463ffffffff167c0100000000000000000000000000000000000000000000000000000000028152600401611ac4939291906126e5565b600060405180830381600087803b158015611ade57600080fd5b505af1158015611af2573d6000803e3d6000fd5b5050505060019250505092915050565b6000611b0c61202b565b6000808773ffffffffffffffffffffffffffffffffffffffff1673ffffffffffffffffffffffffffffffffffffffff16815260200190815260200160002060a060405190810160405290816000820160009054906101000a900473ffffffffffffffffffffffffffffffffffffffff1673ffffffffffffffffffffffffffffffffffffffff1673ffffffffffffffffffffffffffffffffffffffff168152602001600182018054600181600116156101000203166002900480601f016020809104026020016040519081016040528092919081815260200182805460018160011615610100020316600290048015611c455780601f10611c1a57610100808354040283529160200191611c45565b820191906000526020600020905b815481529060010190602001808311611c2857829003601f168201915b505050505081526020016002820160009054906101000a900473ffffffffffffffffffffffffffffffffffffffff1673ffffffffffffffffffffffffffffffffffffffff1673ffffffffffffffffffffffffffffffffffffffff1681526020016003820160009054906101000a900473ffffffffffffffffffffffffffffffffffffffff1673ffffffffffffffffffffffffffffffffffffffff1673ffffffffffffffffffffffffffffffffffffffff1681526020016004820160009054906101000a900473ffffffffffffffffffffffffffffffffffffffff1673ffffffffffffffffffffffffffffffffffffffff1673ffffffffffffffffffffffffffffffffffffffff1681525050905060008160400151905060008173ffffffffffffffffffffffffffffffffffffffff16630ec84913886040518263ffffffff167c0100000000000000000000000000000000000000000000000000000000028152600401611db29190612686565b60206040518083038186803b158015611dca57600080fd5b505afa158015611dde573d6000803e3d6000fd5b505050506040513d601f19601f82011682018060405250611e02919081019061250c565b90508015611f8a5760008360600151905060008173ffffffffffffffffffffffffffffffffffffffff1663c92b125e898b6040518363ffffffff167c0100000000000000000000000000000000000000000000000000000000028152600401611e6c9291906127cd565b60206040518083038186803b158015611e8457600080fd5b505afa158015611e98573d6000803e3d6000fd5b505050506040513d601f19601f82011682018060405250611ebc919081019061250c565b90508015611f87576000856080015190508073ffffffffffffffffffffffffffffffffffffffff1663f981fc74898b8e8e6040518563ffffffff167c0100000000000000000000000000000000000000000000000000000000028152600401611f2894939291906127f6565b602060405180830381600087803b158015611f4257600080fd5b505af1158015611f56573d6000803e3d6000fd5b505050506040513d601f19601f82011682018060405250611f7a9190810190612535565b9650505050505050611f92565b50505b600093505050505b949350505050565b600080824233600254604051602001808481526020018373ffffffffffffffffffffffffffffffffffffffff1673ffffffffffffffffffffffffffffffffffffffff166c010000000000000000000000000281526014018281526020019350505050604051602081830303815290604052805190602001206001900481151561201f57fe5b06905080915050919050565b60a060405190810160405280600073ffffffffffffffffffffffffffffffffffffffff16815260200160608152602001600073ffffffffffffffffffffffffffffffffffffffff168152602001600073ffffffffffffffffffffffffffffffffffffffff168152602001600073ffffffffffffffffffffffffffffffffffffffff1681525090565b604051610d4380612a3383390190565b60405161085a8061377683390190565b6040516106d380613fd083390190565b828054600181600116156101000203166002900490600052602060002090601f016020900481019282601f1061212457805160ff1916838001178555612152565b82800160010185558215612152579182015b82811115612151578251825591602001919060010190612136565b5b50905061215f91906121ea565b5090565b828054600181600116156101000203166002900490600052602060002090601f016020900481019282601f1061219c57805485556121d9565b828001600101855582156121d957600052602060002091601f016020900482015b828111156121d85782548255916001019190600101906121bd565b5b5090506121e691906121ea565b5090565b61220c91905b808211156122085760008160009055506001016121f0565b5090565b90565b600061221b8235612981565b905092915050565b600061222f8251612981565b905092915050565b600082601f830112151561224a57600080fd5b815161225d61225882612868565b61283b565b9150818183526020840193506020810190508385602084028201111561228257600080fd5b60005b838110156122b257816122988882612223565b845260208401935060208301925050600181019050612285565b5050505092915050565b600082601f83011215156122cf57600080fd5b81516122e26122dd82612890565b61283b565b9150818183526020840193506020810190508385602084028201111561230757600080fd5b60005b83811015612337578161231d88826123bf565b84526020840193506020830192505060018101905061230a565b5050505092915050565b600061234d8251612993565b905092915050565b600082601f830112151561236857600080fd5b813561237b612376826128b8565b61283b565b9150808252602083016020830185838301111561239757600080fd5b6123a28382846129df565b50505092915050565b60006123b7823561299f565b905092915050565b60006123cb825161299f565b905092915050565b600080600080608085870312156123e957600080fd5b60006123f78782880161220f565b94505060206124088782880161220f565b9350506040612419878288016123ab565b925050606061242a878288016123ab565b91505092959194509250565b6000806040838503121561244957600080fd5b60006124578582860161220f565b925050602083013567ffffffffffffffff81111561247457600080fd5b61248085828601612355565b9150509250929050565b60006020828403121561249c57600080fd5b600082015167ffffffffffffffff8111156124b657600080fd5b6124c284828501612237565b91505092915050565b6000602082840312156124dd57600080fd5b600082015167ffffffffffffffff8111156124f757600080fd5b612503848285016122bc565b91505092915050565b60006020828403121561251e57600080fd5b600061252c84828501612341565b91505092915050565b60006020828403121561254757600080fd5b6000612555848285016123bf565b91505092915050565b612567816129a9565b82525050565b61257681612939565b82525050565b6000612587826128fe565b808452602084019350612599836128e4565b60005b828110156125cb576125af86835161256d565b6125b88261291f565b915060208601955060018101905061259c565b50849250505092915050565b60006125e282612909565b8084526020840193506125f4836128f1565b60005b828110156126265761260a868351612677565b6126138261292c565b91506020860195506001810190506125f7565b50849250505092915050565b61263b8161294b565b82525050565b600061264c82612914565b8084526126608160208601602086016129ee565b61266981612a21565b602085010191505092915050565b61268081612977565b82525050565b600060208201905061269b600083018461256d565b92915050565b60006020820190506126b6600083018461255e565b92915050565b60006040820190506126d1600083018561255e565b6126de602083018461256d565b9392505050565b60006060820190506126fa600083018661255e565b612707602083018561256d565b81810360408301526127198184612641565b9050949350505050565b6000604082019050612738600083018561256d565b818103602083015261274a8184612641565b90509392505050565b6000602082019050818103600083015261276d818461257c565b905092915050565b6000602082019050818103600083015261278f81846125d7565b905092915050565b60006020820190506127ac6000830184612632565b92915050565b60006020820190506127c76000830184612677565b92915050565b60006040820190506127e26000830185612677565b6127ef602083018461256d565b9392505050565b600060808201905061280b6000830187612677565b6128186020830186612677565b612825604083018561256d565b612832606083018461256d565b95945050505050565b6000604051905081810181811067ffffffffffffffff8211171561285e57600080fd5b8060405250919050565b600067ffffffffffffffff82111561287f57600080fd5b602082029050602081019050919050565b600067ffffffffffffffff8211156128a757600080fd5b602082029050602081019050919050565b600067ffffffffffffffff8211156128cf57600080fd5b601f19601f8301169050602081019050919050565b6000602082019050919050565b6000602082019050919050565b600081519050919050565b600081519050919050565b600081519050919050565b6000602082019050919050565b6000602082019050919050565b600061294482612957565b9050919050565b60008115159050919050565b600073ffffffffffffffffffffffffffffffffffffffff82169050919050565b6000819050919050565b600061298c82612957565b9050919050565b60008115159050919050565b6000819050919050565b60006129b4826129bb565b9050919050565b60006129c6826129cd565b9050919050565b60006129d882612957565b9050919050565b82818337600083830152505050565b60005b83811015612a0c5780820151818401526020810190506129f1565b83811115612a1b576000848401525b50505050565b6000601f19601f830116905091905056fe608060405234801561001057600080fd5b50610d23806100206000396000f3fe608060405260043610610062576000357c0100000000000000000000000000000000000000000000000000000000900463ffffffff1680630ec84913146100675780632c1b5c66146100d0578063b17dc46314610176578063fe7009f21461027e575b600080fd5b34801561007357600080fd5b506100b66004803603602081101561008a57600080fd5b81019080803573ffffffffffffffffffffffffffffffffffffffff1690602001909291905050506103ae565b604051808215151515815260200191505060405180910390f35b3480156100dc57600080fd5b5061011f600480360360208110156100f357600080fd5b81019080803573ffffffffffffffffffffffffffffffffffffffff1690602001909291905050506105a0565b6040518080602001828103825283818151815260200191508051906020019060200280838360005b83811015610162578082015181840152602081019050610147565b505050509050019250505060405180910390f35b34801561018257600080fd5b5061027c6004803603606081101561019957600080fd5b81019080803573ffffffffffffffffffffffffffffffffffffffff169060200190929190803573ffffffffffffffffffffffffffffffffffffffff169060200190929190803590602001906401000000008111156101f657600080fd5b82018360208201111561020857600080fd5b8035906020019184600183028401116401000000008311171561022a57600080fd5b91908080601f016020809104026020016040519081016040528093929190818152602001838380828437600081840152601f19601f820116905080830192505050505050509192919290505050610827565b005b34801561028a57600080fd5b506102cd600480360360208110156102a157600080fd5b81019080803573ffffffffffffffffffffffffffffffffffffffff169060200190929190505050610a3d565b604051808473ffffffffffffffffffffffffffffffffffffffff1673ffffffffffffffffffffffffffffffffffffffff1681526020018373ffffffffffffffffffffffffffffffffffffffff1673ffffffffffffffffffffffffffffffffffffffff16815260200180602001828103825283818151815260200191508051906020019080838360005b83811015610371578082015181840152602081019050610356565b50505050905090810190601f16801561039e5780820380516001836020036101000a031916815260200191505b5094505050505060405180910390f35b600080600090505b600180549050811015610595576103cb610c04565b6001828154811015156103da57fe5b9060005260206000209060030201606060405190810160405290816000820160009054906101000a900473ffffffffffffffffffffffffffffffffffffffff1673ffffffffffffffffffffffffffffffffffffffff1673ffffffffffffffffffffffffffffffffffffffff1681526020016001820160009054906101000a900473ffffffffffffffffffffffffffffffffffffffff1673ffffffffffffffffffffffffffffffffffffffff1673ffffffffffffffffffffffffffffffffffffffff168152602001600282018054600181600116156101000203166002900480601f0160208091040260200160405190810160405280929190818152602001828054600181600116156101000203166002900480156105395780601f1061050e57610100808354040283529160200191610539565b820191906000526020600020905b81548152906001019060200180831161051c57829003601f168201915b50505050508152505090508373ffffffffffffffffffffffffffffffffffffffff16816000015173ffffffffffffffffffffffffffffffffffffffff1614156105875760019250505061059b565b5080806001019150506103b6565b50600090505b919050565b60606000809050600060018054905011156105be5760018054905090505b6060816040519080825280602002602001820160405280156105ef5781602001602082028038833980820191505090505b50905060008090505b60018054905081101561081c5761060d610c04565b60018281548110151561061c57fe5b9060005260206000209060030201606060405190810160405290816000820160009054906101000a900473ffffffffffffffffffffffffffffffffffffffff1673ffffffffffffffffffffffffffffffffffffffff1673ffffffffffffffffffffffffffffffffffffffff1681526020016001820160009054906101000a900473ffffffffffffffffffffffffffffffffffffffff1673ffffffffffffffffffffffffffffffffffffffff1673ffffffffffffffffffffffffffffffffffffffff168152602001600282018054600181600116156101000203166002900480601f01602080910402602001604051908101604052809291908181526020018280546001816001161561010002031660029004801561077b5780601f106107505761010080835404028352916020019161077b565b820191906000526020600020905b81548152906001019060200180831161075e57829003601f168201915b50505050508152505090508573ffffffffffffffffffffffffffffffffffffffff16816020015173ffffffffffffffffffffffffffffffffffffffff16141561080e57806000015183838151811015156107d157fe5b9060200190602002019073ffffffffffffffffffffffffffffffffffffffff16908173ffffffffffffffffffffffffffffffffffffffff16815250505b5080806001019150506105f8565b508092505050919050565b600073ffffffffffffffffffffffffffffffffffffffff168273ffffffffffffffffffffffffffffffffffffffff161415151561086357600080fd5b60608190506000815111151561087857600080fd5b600073ffffffffffffffffffffffffffffffffffffffff166000808573ffffffffffffffffffffffffffffffffffffffff1673ffffffffffffffffffffffffffffffffffffffff16815260200190815260200160002060000160009054906101000a900473ffffffffffffffffffffffffffffffffffffffff1673ffffffffffffffffffffffffffffffffffffffff1614151561091457600080fd5b60016060604051908101604052808573ffffffffffffffffffffffffffffffffffffffff1681526020018673ffffffffffffffffffffffffffffffffffffffff168152602001848152509080600181540180825580915050906001820390600052602060002090600302016000909192909190915060008201518160000160006101000a81548173ffffffffffffffffffffffffffffffffffffffff021916908373ffffffffffffffffffffffffffffffffffffffff16021790555060208201518160010160006101000a81548173ffffffffffffffffffffffffffffffffffffffff021916908373ffffffffffffffffffffffffffffffffffffffff1602179055506040820151816002019080519060200190610a33929190610c52565b5050505050505050565b6000806060610a4a610c04565b6000808673ffffffffffffffffffffffffffffffffffffffff1673ffffffffffffffffffffffffffffffffffffffff168152602001908152602001600020606060405190810160405290816000820160009054906101000a900473ffffffffffffffffffffffffffffffffffffffff1673ffffffffffffffffffffffffffffffffffffffff1673ffffffffffffffffffffffffffffffffffffffff1681526020016001820160009054906101000a900473ffffffffffffffffffffffffffffffffffffffff1673ffffffffffffffffffffffffffffffffffffffff1673ffffffffffffffffffffffffffffffffffffffff168152602001600282018054600181600116156101000203166002900480601f016020809104026020016040519081016040528092919081815260200182805460018160011615610100020316600290048015610bd95780601f10610bae57610100808354040283529160200191610bd9565b820191906000526020600020905b815481529060010190602001808311610bbc57829003601f168201915b5050505050815250509050806000015181602001518260400151809050935093509350509193909250565b606060405190810160405280600073ffffffffffffffffffffffffffffffffffffffff168152602001600073ffffffffffffffffffffffffffffffffffffffff168152602001606081525090565b828054600181600116156101000203166002900490600052602060002090601f016020900481019282601f10610c9357805160ff1916838001178555610cc1565b82800160010185558215610cc1579182015b82811115610cc0578251825591602001919060010190610ca5565b5b509050610cce9190610cd2565b5090565b610cf491905b80821115610cf0576000816000905550600101610cd8565b5090565b9056fea165627a7a723058207948f2071600ad36d2f3eca6913afff892760b34b21014cb5fa73f0c46e479d400296080604052600160025534801561001557600080fd5b50610835806100256000396000f3fe608060405260043610610057576000357c0100000000000000000000000000000000000000000000000000000000900463ffffffff1680632a1b5f6c1461005c5780632b48bcbb14610102578063c92b125e14610187575b600080fd5b34801561006857600080fd5b506100ab6004803603602081101561007f57600080fd5b81019080803573ffffffffffffffffffffffffffffffffffffffff1690602001909291905050506101fa565b6040518080602001828103825283818151815260200191508051906020019060200280838360005b838110156100ee5780820151818401526020810190506100d3565b505050509050019250505060405180910390f35b34801561010e57600080fd5b506101716004803603604081101561012557600080fd5b81019080803573ffffffffffffffffffffffffffffffffffffffff169060200190929190803573ffffffffffffffffffffffffffffffffffffffff1690602001909291905050506103a2565b6040518082815260200191505060405180910390f35b34801561019357600080fd5b506101e0600480360360408110156101aa57600080fd5b8101908080359060200190929190803573ffffffffffffffffffffffffffffffffffffffff169060200190929190505050610653565b604051808215151515815260200191505060405180910390f35b6060806001805490506040519080825280602002602001820160405280156102315781602001602082028038833980820191505090505b50905060008090505b6001805490508110156103985761024f6107bb565b60018281548110151561025e57fe5b906000526020600020906003020160606040519081016040529081600082015481526020016001820160009054906101000a900473ffffffffffffffffffffffffffffffffffffffff1673ffffffffffffffffffffffffffffffffffffffff1673ffffffffffffffffffffffffffffffffffffffff1681526020016002820160009054906101000a900473ffffffffffffffffffffffffffffffffffffffff1673ffffffffffffffffffffffffffffffffffffffff1673ffffffffffffffffffffffffffffffffffffffff168152505090508473ffffffffffffffffffffffffffffffffffffffff16816020015173ffffffffffffffffffffffffffffffffffffffff16141561038a578060000151838381518110151561037b57fe5b90602001906020020181815250505b50808060010191505061023a565b5080915050919050565b60008073ffffffffffffffffffffffffffffffffffffffff168373ffffffffffffffffffffffffffffffffffffffff16141515156103df57600080fd5b600073ffffffffffffffffffffffffffffffffffffffff168273ffffffffffffffffffffffffffffffffffffffff161415151561041b57600080fd5b6000600254905060606040519081016040528060025481526020018573ffffffffffffffffffffffffffffffffffffffff1681526020018473ffffffffffffffffffffffffffffffffffffffff1681525060008060025481526020019081526020016000206000820151816000015560208201518160010160006101000a81548173ffffffffffffffffffffffffffffffffffffffff021916908373ffffffffffffffffffffffffffffffffffffffff16021790555060408201518160020160006101000a81548173ffffffffffffffffffffffffffffffffffffffff021916908373ffffffffffffffffffffffffffffffffffffffff1602179055509050506001600080600254815260200190815260200160002090806001815401808255809150509060018203906000526020600020906003020160009091929091909150600082015481600001556001820160009054906101000a900473ffffffffffffffffffffffffffffffffffffffff168160010160006101000a81548173ffffffffffffffffffffffffffffffffffffffff021916908373ffffffffffffffffffffffffffffffffffffffff1602179055506002820160009054906101000a900473ffffffffffffffffffffffffffffffffffffffff168160020160006101000a81548173ffffffffffffffffffffffffffffffffffffffff021916908373ffffffffffffffffffffffffffffffffffffffff1602179055505050506002600081548092919060010191905055508091505092915050565b600080600090505b6001805490508110156107af576106706107bb565b60018281548110151561067f57fe5b906000526020600020906003020160606040519081016040529081600082015481526020016001820160009054906101000a900473ffffffffffffffffffffffffffffffffffffffff1673ffffffffffffffffffffffffffffffffffffffff1673ffffffffffffffffffffffffffffffffffffffff1681526020016002820160009054906101000a900473ffffffffffffffffffffffffffffffffffffffff1673ffffffffffffffffffffffffffffffffffffffff1673ffffffffffffffffffffffffffffffffffffffff1681525050905084816000015114156107a1578373ffffffffffffffffffffffffffffffffffffffff16816040015173ffffffffffffffffffffffffffffffffffffffff1614156107a0576001925050506107b5565b5b50808060010191505061065b565b50600090505b92915050565b60606040519081016040528060008152602001600073ffffffffffffffffffffffffffffffffffffffff168152602001600073ffffffffffffffffffffffffffffffffffffffff168152509056fea165627a7a723058206605e5705af4c7f159009c2bbabe66afef882b53f843011e496a2ac405fc4f8c00296080604052600160025534801561001557600080fd5b506106ae806100256000396000f3fe60806040526004361061004c576000357c0100000000000000000000000000000000000000000000000000000000900463ffffffff168063f91b4ddf14610051578063f981fc74146100f7575b600080fd5b34801561005d57600080fd5b506100a06004803603602081101561007457600080fd5b81019080803573ffffffffffffffffffffffffffffffffffffffff169060200190929190505050610190565b6040518080602001828103825283818151815260200191508051906020019060200280838360005b838110156100e35780820151818401526020810190506100c8565b505050509050019250505060405180910390f35b34801561010357600080fd5b5061017a6004803603608081101561011a57600080fd5b810190808035906020019092919080359060200190929190803573ffffffffffffffffffffffffffffffffffffffff169060200190929190803573ffffffffffffffffffffffffffffffffffffffff169060200190929190505050610342565b6040518082815260200191505060405180910390f35b6060806001805490506040519080825280602002602001820160405280156101c75781602001602082028038833980820191505090505b50905060008090505b600180549050811015610338576101e561062d565b6001828154811015156101f457fe5b90600052602060002090600402016080604051908101604052908160008201548152602001600182015481526020016002820160009054906101000a900473ffffffffffffffffffffffffffffffffffffffff1673ffffffffffffffffffffffffffffffffffffffff1673ffffffffffffffffffffffffffffffffffffffff1681526020016003820160009054906101000a900473ffffffffffffffffffffffffffffffffffffffff1673ffffffffffffffffffffffffffffffffffffffff1673ffffffffffffffffffffffffffffffffffffffff168152505090508473ffffffffffffffffffffffffffffffffffffffff16816060015173ffffffffffffffffffffffffffffffffffffffff16141561032a578060000151838381518110151561031b57fe5b90602001906020020181815250505b5080806001019150506101d0565b5080915050919050565b60008073ffffffffffffffffffffffffffffffffffffffff168373ffffffffffffffffffffffffffffffffffffffff161415151561037f57600080fd5b600073ffffffffffffffffffffffffffffffffffffffff168273ffffffffffffffffffffffffffffffffffffffff16141515156103bb57600080fd5b600084141515156103cb57600080fd5b600085141515156103db57600080fd5b600060025490506080604051908101604052808781526020018681526020018573ffffffffffffffffffffffffffffffffffffffff1681526020018473ffffffffffffffffffffffffffffffffffffffff168152506000806002548152602001908152602001600020600082015181600001556020820151816001015560408201518160020160006101000a81548173ffffffffffffffffffffffffffffffffffffffff021916908373ffffffffffffffffffffffffffffffffffffffff16021790555060608201518160030160006101000a81548173ffffffffffffffffffffffffffffffffffffffff021916908373ffffffffffffffffffffffffffffffffffffffff160217905550905050600160008060025481526020019081526020016000209080600181540180825580915050906001820390600052602060002090600402016000909192909190915060008201548160000155600182015481600101556002820160009054906101000a900473ffffffffffffffffffffffffffffffffffffffff168160020160006101000a81548173ffffffffffffffffffffffffffffffffffffffff021916908373ffffffffffffffffffffffffffffffffffffffff1602179055506003820160009054906101000a900473ffffffffffffffffffffffffffffffffffffffff168160030160006101000a81548173ffffffffffffffffffffffffffffffffffffffff021916908373ffffffffffffffffffffffffffffffffffffffff16021790555050505060026000815480929190600101919050555080915050949350505050565b6080604051908101604052806000815260200160008152602001600073ffffffffffffffffffffffffffffffffffffffff168152602001600073ffffffffffffffffffffffffffffffffffffffff168152509056fea165627a7a72305820c2732454b05f79f6cd4b3928c9c8444c34fdd21c84f7ef89390460de7539916d0029a265627a7a72305820d3dfceaab9169f9f64677e6da31ca255da0cf75b28b4f18c1ce637cae60ab6216c6578706572696d656e74616cf50037",
  "source": "pragma solidity >=0.4.22 <0.6.0;\npragma experimental ABIEncoderV2;\n\nimport \"./SupplierRegistry.sol\";\nimport \"./PurchaseOrderRegistry.sol\";\nimport \"./InvoiceRegistry.sol\";\n\n\ncontract InvoiceGovernanceContract {\n    \n    struct Manufacturer {\n        address ownerPublicKey;\n        string  name;\n        address supplierRegistry;\n        address purchaseOrderRegistry;\n        address invoiceRegistry;\n    }\n    \n    \n    mapping(address => Manufacturer) private theManufacturersMap;\n    Manufacturer[] private theManufacturersList;\n    uint nonce = 0;\n    \n     /**\n     * isGoverningBody: Checks if the caller address is in the list of manufacturers\n     * \n     */\n    modifier isGoverningBody() {\n        require(theManufacturersMap[msg.sender].ownerPublicKey != address(0));\n        _;\n    }\n    \n    /**\n     * A public constructor, allowing this contract to be executed with an address \n     * & name of manufacturer. This means anybody can register itself as a manufacturer\n     * \n     */\n    function registerManufacturer(address ownerPublicKey, string memory name) payable public returns (uint index) {\n        require(ownerPublicKey != address(0));\n        bytes memory strAsBytes = bytes(name);\n        require(strAsBytes.length > 0);\n        require(theManufacturersMap[ownerPublicKey].ownerPublicKey == address(0));\n        \n        theManufacturersMap[ownerPublicKey]  = Manufacturer(ownerPublicKey, name, \n                                                    address(new SupplierRegistry()), \n                                                    address(new PurchaseOrderRegistry()), \n                                                    address(new InvoiceRegistry()));\n        theManufacturersList.push(theManufacturersMap[ownerPublicKey]);\n        return theManufacturersList.length;\n    }\n    \n    \n    \n    /**\n     * getGoverningBody: returns the address and name of a Manufacturer. \n     * Since in solidity we cannot return structs as yet, we return the tuple\n     */\n    function getCurrentManufacturer() public view isGoverningBody returns (address, string memory) {\n        return (theManufacturersMap[msg.sender].ownerPublicKey, theManufacturersMap[msg.sender].name);\n    }\n    \n    /**\n     * getGoverningBody: returns the address and name of a Manufacturer. \n     * Since in solidity we cannot return structs as yet, we return the tuple\n     */\n    function getAllManufacturers() public view returns (address[] memory) {\n        address[] memory addresses = new address[](theManufacturersList.length);\n        \n        for (uint i = 0; i < theManufacturersList.length; i++) {\n            Manufacturer memory aManufcaturer = theManufacturersList[i];\n            addresses[i] = aManufcaturer.ownerPublicKey;\n        }\n        \n        return (addresses);\n    }\n    \n    function registerSupplier(address seller_address, string memory seller_name) \n                payable public isGoverningBody returns (bool) {\n                    \n        Manufacturer memory theManufcaturer = theManufacturersMap[msg.sender];\n        SupplierRegistry register = SupplierRegistry(theManufcaturer.supplierRegistry);\n        register.addSupplier(msg.sender, seller_address, seller_name);\n        return true;\n    }\n    \n     function getSuppliers() \n                 public view isGoverningBody returns (address[] memory suppliers) {\n        Manufacturer memory theManufcaturer = theManufacturersMap[msg.sender];\n        SupplierRegistry register = SupplierRegistry(theManufcaturer.supplierRegistry);\n        return register.getAllSuppliersForAManufacturer(msg.sender);\n    }\n    \n    function createPurchaseOrder() \n                payable public isGoverningBody returns (uint256) {\n                    \n        Manufacturer memory theManufcaturer = theManufacturersMap[msg.sender];\n        PurchaseOrderRegistry poRegister = PurchaseOrderRegistry(theManufcaturer.purchaseOrderRegistry);\n        address[] memory listOfSuppliers = getSuppliers();\n        uint randomSupplier = rand(listOfSuppliers.length);\n        address aRandomSupplier = listOfSuppliers[randomSupplier];\n        \n        return poRegister.createPurchaseOrder(msg.sender, aRandomSupplier);\n    }\n    \n    function getAllPurchaseorders() public view isGoverningBody returns (uint256[] memory) {\n        Manufacturer memory theManufcaturer = theManufacturersMap[msg.sender];\n        PurchaseOrderRegistry poRegister = PurchaseOrderRegistry(theManufcaturer.purchaseOrderRegistry);\n        return poRegister.getAllPOS(msg.sender);\n    }\n    \n    function rand(uint max) private view returns (uint){\n        uint randomnumber = uint(keccak256(abi.encodePacked(now, msg.sender, nonce))) % max;\n        return randomnumber;\n    }\n    \n    function raiseInvoice(address manufacturer_address, \n                address seller_address, uint256 po_number, uint256 invoiceNumber) public payable returns (uint256) {\n       \n       Manufacturer memory theManufcaturer = theManufacturersMap[manufacturer_address];\n       SupplierRegistry register = SupplierRegistry(theManufcaturer.supplierRegistry);\n       bool isValidSupplier = register.isAValidSupplier(seller_address);\n       \n       if(isValidSupplier) {\n            PurchaseOrderRegistry poRegister = PurchaseOrderRegistry(theManufcaturer.purchaseOrderRegistry);\n            bool isPoValid = poRegister.isValidPoForSupplier(po_number, seller_address);\n            if(isPoValid) {\n                InvoiceRegistry invoiceRegistry = InvoiceRegistry(theManufcaturer.invoiceRegistry);\n                return invoiceRegistry.createInvoice(invoiceNumber, po_number, manufacturer_address, seller_address);\n            }\n       }\n       \n       return 0;\n   }\n    \n}\n",
  "sourcePath": "/Users/srik/solitude_repo/ChainVoice_Repo/ChaInVoice/truffle_chainvoice/contracts/InvoiceGovernanceContract.sol",
  "compiler": {
    "name": "solc",
    "version": "0.5.0+commit.1d4f565a.Emscripten.clang"
  },
  "schemaVersion": "3.0.2",
  "updatedAt": "2019-02-24T08:54:13.178Z",
  "devdoc": {
    "methods": {}
  },
  "userdoc": {
    "methods": {
      "getAllManufacturers()": {
        "notice": "getGoverningBody: returns the address and name of a Manufacturer.  Since in solidity we cannot return structs as yet, we return the tuple"
      },
      "getCurrentManufacturer()": {
        "notice": "getGoverningBody: returns the address and name of a Manufacturer.  Since in solidity we cannot return structs as yet, we return the tuple"
      },
      "registerManufacturer(address,string)": {
        "notice": "A public constructor, allowing this contract to be executed with an address  & name of manufacturer. This means anybody can register itself as a manufacturer      "
      }
    }
  }
}