{
  "contractName": "InvoiceRegistry",
  "abi": [
    {
      "constant": false,
      "inputs": [
        {
          "name": "_invoiceNum",
          "type": "uint256"
        },
        {
          "name": "_poNum",
          "type": "uint256"
        },
        {
          "name": "_manufacturer_address",
          "type": "address"
        },
        {
          "name": "_supplierAddress",
          "type": "address"
        }
      ],
      "name": "createInvoice",
      "outputs": [
        {
          "name": "",
          "type": "uint256"
        }
      ],
      "payable": false,
      "stateMutability": "nonpayable",
      "type": "function"
    },
    {
      "constant": true,
      "inputs": [
        {
          "name": "_supplier_address",
          "type": "address"
        }
      ],
      "name": "getAllInvoices",
      "outputs": [
        {
          "name": "",
          "type": "uint256[]"
        }
      ],
      "payable": false,
      "stateMutability": "view",
      "type": "function"
    }
  ],
  "bytecode": "0x6080604052600160025534801561001557600080fd5b506106ae806100256000396000f3fe60806040526004361061004c576000357c0100000000000000000000000000000000000000000000000000000000900463ffffffff168063f91b4ddf14610051578063f981fc74146100f7575b600080fd5b34801561005d57600080fd5b506100a06004803603602081101561007457600080fd5b81019080803573ffffffffffffffffffffffffffffffffffffffff169060200190929190505050610190565b6040518080602001828103825283818151815260200191508051906020019060200280838360005b838110156100e35780820151818401526020810190506100c8565b505050509050019250505060405180910390f35b34801561010357600080fd5b5061017a6004803603608081101561011a57600080fd5b810190808035906020019092919080359060200190929190803573ffffffffffffffffffffffffffffffffffffffff169060200190929190803573ffffffffffffffffffffffffffffffffffffffff169060200190929190505050610342565b6040518082815260200191505060405180910390f35b6060806001805490506040519080825280602002602001820160405280156101c75781602001602082028038833980820191505090505b50905060008090505b600180549050811015610338576101e561062d565b6001828154811015156101f457fe5b90600052602060002090600402016080604051908101604052908160008201548152602001600182015481526020016002820160009054906101000a900473ffffffffffffffffffffffffffffffffffffffff1673ffffffffffffffffffffffffffffffffffffffff1673ffffffffffffffffffffffffffffffffffffffff1681526020016003820160009054906101000a900473ffffffffffffffffffffffffffffffffffffffff1673ffffffffffffffffffffffffffffffffffffffff1673ffffffffffffffffffffffffffffffffffffffff168152505090508473ffffffffffffffffffffffffffffffffffffffff16816060015173ffffffffffffffffffffffffffffffffffffffff16141561032a578060000151838381518110151561031b57fe5b90602001906020020181815250505b5080806001019150506101d0565b5080915050919050565b60008073ffffffffffffffffffffffffffffffffffffffff168373ffffffffffffffffffffffffffffffffffffffff161415151561037f57600080fd5b600073ffffffffffffffffffffffffffffffffffffffff168273ffffffffffffffffffffffffffffffffffffffff16141515156103bb57600080fd5b600084141515156103cb57600080fd5b600085141515156103db57600080fd5b600060025490506080604051908101604052808781526020018681526020018573ffffffffffffffffffffffffffffffffffffffff1681526020018473ffffffffffffffffffffffffffffffffffffffff168152506000806002548152602001908152602001600020600082015181600001556020820151816001015560408201518160020160006101000a81548173ffffffffffffffffffffffffffffffffffffffff021916908373ffffffffffffffffffffffffffffffffffffffff16021790555060608201518160030160006101000a81548173ffffffffffffffffffffffffffffffffffffffff021916908373ffffffffffffffffffffffffffffffffffffffff160217905550905050600160008060025481526020019081526020016000209080600181540180825580915050906001820390600052602060002090600402016000909192909190915060008201548160000155600182015481600101556002820160009054906101000a900473ffffffffffffffffffffffffffffffffffffffff168160020160006101000a81548173ffffffffffffffffffffffffffffffffffffffff021916908373ffffffffffffffffffffffffffffffffffffffff1602179055506003820160009054906101000a900473ffffffffffffffffffffffffffffffffffffffff168160030160006101000a81548173ffffffffffffffffffffffffffffffffffffffff021916908373ffffffffffffffffffffffffffffffffffffffff16021790555050505060026000815480929190600101919050555080915050949350505050565b6080604051908101604052806000815260200160008152602001600073ffffffffffffffffffffffffffffffffffffffff168152602001600073ffffffffffffffffffffffffffffffffffffffff168152509056fea165627a7a72305820c2732454b05f79f6cd4b3928c9c8444c34fdd21c84f7ef89390460de7539916d0029",
  "source": "pragma solidity >=0.4.22 <0.6.0;\n\nimport \"./PurchaseOrderRegistry.sol\";\n\ncontract  InvoiceRegistry{\n    \n    struct invoice {\n        uint256 invoiceNum;\n        uint256 poNum;\n        address manufacturerAddress;\n        address supplierAddress;\n    }\n    \n    mapping(uint256 => invoice) invoiceMap;\n    invoice[] invoices;\n    uint256 invoiceNumber=1;\n    \n    function createInvoice(uint256 _invoiceNum, uint256 _poNum,address _manufacturer_address, address _supplierAddress)\n    public returns (uint256) {\n        \n        require(_manufacturer_address != address(0));\n        require(_supplierAddress != address(0));\n        require(_poNum != 0);\n        require(_invoiceNum != 0);\n        \n        uint256 currinvoiceNumber = invoiceNumber;\n        invoiceMap[invoiceNumber] = invoice(_invoiceNum,_poNum, _manufacturer_address, _supplierAddress);\n        invoices.push(invoiceMap[invoiceNumber]);\n        invoiceNumber++;\n        return currinvoiceNumber;\n    }\n    \n    function getAllInvoices(address _supplier_address) public view returns (uint256[] memory) {\n        uint256[] memory poNumbers = new uint256[](invoices.length);\n        \n        for (uint i = 0; i < invoices.length; i++) {\n            invoice memory aInvoice = invoices[i];\n            if(aInvoice.supplierAddress == _supplier_address) {\n                poNumbers[i] = aInvoice.invoiceNum;\n            }\n        }\n        \n        return (poNumbers);\n    }\n    \n}\n",
  "sourcePath": "/Users/srik/solitude_repo/ChainVoice_Repo/ChaInVoice/truffle_chainvoice/contracts/InvoiceRegistry.sol",
  "compiler": {
    "name": "solc",
    "version": "0.5.0+commit.1d4f565a.Emscripten.clang"
  },
  "schemaVersion": "3.0.2",
  "updatedAt": "2019-02-24T08:47:49.095Z",
  "devdoc": {
    "methods": {}
  },
  "userdoc": {
    "methods": {}
  }
}