{
  "contractName": "PurchaseOrderRegistry",
  "abi": [
    {
      "constant": false,
      "inputs": [
        {
          "name": "_manufacturer_address",
          "type": "address"
        },
        {
          "name": "_supplierAddress",
          "type": "address"
        }
      ],
      "name": "createPurchaseOrder",
      "outputs": [
        {
          "name": "",
          "type": "uint256"
        }
      ],
      "payable": false,
      "stateMutability": "nonpayable",
      "type": "function"
    },
    {
      "constant": true,
      "inputs": [
        {
          "name": "_manufacturer_address",
          "type": "address"
        }
      ],
      "name": "getAllPOS",
      "outputs": [
        {
          "name": "",
          "type": "uint256[]"
        }
      ],
      "payable": false,
      "stateMutability": "view",
      "type": "function"
    },
    {
      "constant": true,
      "inputs": [
        {
          "name": "po_number",
          "type": "uint256"
        },
        {
          "name": "_seller_address",
          "type": "address"
        }
      ],
      "name": "isValidPoForSupplier",
      "outputs": [
        {
          "name": "",
          "type": "bool"
        }
      ],
      "payable": false,
      "stateMutability": "view",
      "type": "function"
    }
  ],
  "bytecode": "0x6080604052600160025534801561001557600080fd5b50610835806100256000396000f3fe608060405260043610610057576000357c0100000000000000000000000000000000000000000000000000000000900463ffffffff1680632a1b5f6c1461005c5780632b48bcbb14610102578063c92b125e14610187575b600080fd5b34801561006857600080fd5b506100ab6004803603602081101561007f57600080fd5b81019080803573ffffffffffffffffffffffffffffffffffffffff1690602001909291905050506101fa565b6040518080602001828103825283818151815260200191508051906020019060200280838360005b838110156100ee5780820151818401526020810190506100d3565b505050509050019250505060405180910390f35b34801561010e57600080fd5b506101716004803603604081101561012557600080fd5b81019080803573ffffffffffffffffffffffffffffffffffffffff169060200190929190803573ffffffffffffffffffffffffffffffffffffffff1690602001909291905050506103a2565b6040518082815260200191505060405180910390f35b34801561019357600080fd5b506101e0600480360360408110156101aa57600080fd5b8101908080359060200190929190803573ffffffffffffffffffffffffffffffffffffffff169060200190929190505050610653565b604051808215151515815260200191505060405180910390f35b6060806001805490506040519080825280602002602001820160405280156102315781602001602082028038833980820191505090505b50905060008090505b6001805490508110156103985761024f6107bb565b60018281548110151561025e57fe5b906000526020600020906003020160606040519081016040529081600082015481526020016001820160009054906101000a900473ffffffffffffffffffffffffffffffffffffffff1673ffffffffffffffffffffffffffffffffffffffff1673ffffffffffffffffffffffffffffffffffffffff1681526020016002820160009054906101000a900473ffffffffffffffffffffffffffffffffffffffff1673ffffffffffffffffffffffffffffffffffffffff1673ffffffffffffffffffffffffffffffffffffffff168152505090508473ffffffffffffffffffffffffffffffffffffffff16816020015173ffffffffffffffffffffffffffffffffffffffff16141561038a578060000151838381518110151561037b57fe5b90602001906020020181815250505b50808060010191505061023a565b5080915050919050565b60008073ffffffffffffffffffffffffffffffffffffffff168373ffffffffffffffffffffffffffffffffffffffff16141515156103df57600080fd5b600073ffffffffffffffffffffffffffffffffffffffff168273ffffffffffffffffffffffffffffffffffffffff161415151561041b57600080fd5b6000600254905060606040519081016040528060025481526020018573ffffffffffffffffffffffffffffffffffffffff1681526020018473ffffffffffffffffffffffffffffffffffffffff1681525060008060025481526020019081526020016000206000820151816000015560208201518160010160006101000a81548173ffffffffffffffffffffffffffffffffffffffff021916908373ffffffffffffffffffffffffffffffffffffffff16021790555060408201518160020160006101000a81548173ffffffffffffffffffffffffffffffffffffffff021916908373ffffffffffffffffffffffffffffffffffffffff1602179055509050506001600080600254815260200190815260200160002090806001815401808255809150509060018203906000526020600020906003020160009091929091909150600082015481600001556001820160009054906101000a900473ffffffffffffffffffffffffffffffffffffffff168160010160006101000a81548173ffffffffffffffffffffffffffffffffffffffff021916908373ffffffffffffffffffffffffffffffffffffffff1602179055506002820160009054906101000a900473ffffffffffffffffffffffffffffffffffffffff168160020160006101000a81548173ffffffffffffffffffffffffffffffffffffffff021916908373ffffffffffffffffffffffffffffffffffffffff1602179055505050506002600081548092919060010191905055508091505092915050565b600080600090505b6001805490508110156107af576106706107bb565b60018281548110151561067f57fe5b906000526020600020906003020160606040519081016040529081600082015481526020016001820160009054906101000a900473ffffffffffffffffffffffffffffffffffffffff1673ffffffffffffffffffffffffffffffffffffffff1673ffffffffffffffffffffffffffffffffffffffff1681526020016002820160009054906101000a900473ffffffffffffffffffffffffffffffffffffffff1673ffffffffffffffffffffffffffffffffffffffff1673ffffffffffffffffffffffffffffffffffffffff1681525050905084816000015114156107a1578373ffffffffffffffffffffffffffffffffffffffff16816040015173ffffffffffffffffffffffffffffffffffffffff1614156107a0576001925050506107b5565b5b50808060010191505061065b565b50600090505b92915050565b60606040519081016040528060008152602001600073ffffffffffffffffffffffffffffffffffffffff168152602001600073ffffffffffffffffffffffffffffffffffffffff168152509056fea165627a7a723058206605e5705af4c7f159009c2bbabe66afef882b53f843011e496a2ac405fc4f8c0029",
  "source": "pragma solidity >=0.4.22 <0.6.0;\nimport \"./SupplierRegistry.sol\";\n \ncontract  PurchaseOrderRegistry{\n    \n    struct PurchaseOrder {\n        uint256 piNumber;\n        address manufacturerAddress;\n        address supplierAddress;\n    }\n    \n    mapping(uint256 => PurchaseOrder) purchaseOrderMap;\n    PurchaseOrder []  purchaseOrders;\n    uint256 piNum = 1;\n    \n    function createPurchaseOrder(address _manufacturer_address, address _supplierAddress)\n    public returns (uint256) {\n        \n        require(_manufacturer_address != address(0));\n        require(_supplierAddress != address(0));\n        \n        uint256 currPiNumber = piNum;\n        purchaseOrderMap[piNum] = PurchaseOrder(piNum, _manufacturer_address, _supplierAddress);\n        purchaseOrders.push(purchaseOrderMap[piNum]);\n        piNum++;\n        return currPiNumber;\n    }\n    \n\n    function getAllPOS(address _manufacturer_address) public view returns (uint256[] memory) {\n        uint256[] memory poNumbers = new uint256[](purchaseOrders.length);\n        \n        for (uint i = 0; i < purchaseOrders.length; i++) {\n            PurchaseOrder memory aPurchase = purchaseOrders[i];\n            if(aPurchase.manufacturerAddress == _manufacturer_address) {\n                poNumbers[i] = aPurchase.piNumber;\n            }\n        }\n        \n        return (poNumbers);\n    }\n    \n    function isValidPoForSupplier(uint256 po_number, address _seller_address) public view returns (bool) {\n       \n        for (uint i = 0; i < purchaseOrders.length; i++) {\n           PurchaseOrder memory aPo = purchaseOrders[i];\n           if(aPo.piNumber == po_number) {\n               if(aPo.supplierAddress == _seller_address) {\n                   return true;\n               }\n           }\n       }\n       \n       return false;\n    }\n}\n",
  "sourcePath": "/Users/srik/solitude_repo/ChainVoice_Repo/ChaInVoice/truffle_chainvoice/contracts/PurchaseOrderRegistry.sol",
  "compiler": {
    "name": "solc",
    "version": "0.5.0+commit.1d4f565a.Emscripten.clang"
  },
  "schemaVersion": "3.0.2",
  "updatedAt": "2019-02-24T08:47:49.096Z",
  "devdoc": {
    "methods": {}
  },
  "userdoc": {
    "methods": {}
  }
}