{
  "contractName": "SupplierRegistry",
  "abi": [
    {
      "constant": false,
      "inputs": [
        {
          "name": "_manufacturer_address",
          "type": "address"
        },
        {
          "name": "_supplierAddress",
          "type": "address"
        },
        {
          "name": "_supplierName",
          "type": "string"
        }
      ],
      "name": "addSupplier",
      "outputs": [],
      "payable": false,
      "stateMutability": "nonpayable",
      "type": "function"
    },
    {
      "constant": true,
      "inputs": [
        {
          "name": "supplier_address",
          "type": "address"
        }
      ],
      "name": "getSupplier",
      "outputs": [
        {
          "name": "",
          "type": "address"
        },
        {
          "name": "",
          "type": "address"
        },
        {
          "name": "",
          "type": "string"
        }
      ],
      "payable": false,
      "stateMutability": "view",
      "type": "function"
    },
    {
      "constant": true,
      "inputs": [
        {
          "name": "_manufacturer_address",
          "type": "address"
        }
      ],
      "name": "getAllSuppliersForAManufacturer",
      "outputs": [
        {
          "name": "",
          "type": "address[]"
        }
      ],
      "payable": false,
      "stateMutability": "view",
      "type": "function"
    },
    {
      "constant": true,
      "inputs": [
        {
          "name": "_seller_address",
          "type": "address"
        }
      ],
      "name": "isAValidSupplier",
      "outputs": [
        {
          "name": "",
          "type": "bool"
        }
      ],
      "payable": false,
      "stateMutability": "view",
      "type": "function"
    }
  ],
  "bytecode": "0x608060405234801561001057600080fd5b50610d23806100206000396000f3fe608060405260043610610062576000357c0100000000000000000000000000000000000000000000000000000000900463ffffffff1680630ec84913146100675780632c1b5c66146100d0578063b17dc46314610176578063fe7009f21461027e575b600080fd5b34801561007357600080fd5b506100b66004803603602081101561008a57600080fd5b81019080803573ffffffffffffffffffffffffffffffffffffffff1690602001909291905050506103ae565b604051808215151515815260200191505060405180910390f35b3480156100dc57600080fd5b5061011f600480360360208110156100f357600080fd5b81019080803573ffffffffffffffffffffffffffffffffffffffff1690602001909291905050506105a0565b6040518080602001828103825283818151815260200191508051906020019060200280838360005b83811015610162578082015181840152602081019050610147565b505050509050019250505060405180910390f35b34801561018257600080fd5b5061027c6004803603606081101561019957600080fd5b81019080803573ffffffffffffffffffffffffffffffffffffffff169060200190929190803573ffffffffffffffffffffffffffffffffffffffff169060200190929190803590602001906401000000008111156101f657600080fd5b82018360208201111561020857600080fd5b8035906020019184600183028401116401000000008311171561022a57600080fd5b91908080601f016020809104026020016040519081016040528093929190818152602001838380828437600081840152601f19601f820116905080830192505050505050509192919290505050610827565b005b34801561028a57600080fd5b506102cd600480360360208110156102a157600080fd5b81019080803573ffffffffffffffffffffffffffffffffffffffff169060200190929190505050610a3d565b604051808473ffffffffffffffffffffffffffffffffffffffff1673ffffffffffffffffffffffffffffffffffffffff1681526020018373ffffffffffffffffffffffffffffffffffffffff1673ffffffffffffffffffffffffffffffffffffffff16815260200180602001828103825283818151815260200191508051906020019080838360005b83811015610371578082015181840152602081019050610356565b50505050905090810190601f16801561039e5780820380516001836020036101000a031916815260200191505b5094505050505060405180910390f35b600080600090505b600180549050811015610595576103cb610c04565b6001828154811015156103da57fe5b9060005260206000209060030201606060405190810160405290816000820160009054906101000a900473ffffffffffffffffffffffffffffffffffffffff1673ffffffffffffffffffffffffffffffffffffffff1673ffffffffffffffffffffffffffffffffffffffff1681526020016001820160009054906101000a900473ffffffffffffffffffffffffffffffffffffffff1673ffffffffffffffffffffffffffffffffffffffff1673ffffffffffffffffffffffffffffffffffffffff168152602001600282018054600181600116156101000203166002900480601f0160208091040260200160405190810160405280929190818152602001828054600181600116156101000203166002900480156105395780601f1061050e57610100808354040283529160200191610539565b820191906000526020600020905b81548152906001019060200180831161051c57829003601f168201915b50505050508152505090508373ffffffffffffffffffffffffffffffffffffffff16816000015173ffffffffffffffffffffffffffffffffffffffff1614156105875760019250505061059b565b5080806001019150506103b6565b50600090505b919050565b60606000809050600060018054905011156105be5760018054905090505b6060816040519080825280602002602001820160405280156105ef5781602001602082028038833980820191505090505b50905060008090505b60018054905081101561081c5761060d610c04565b60018281548110151561061c57fe5b9060005260206000209060030201606060405190810160405290816000820160009054906101000a900473ffffffffffffffffffffffffffffffffffffffff1673ffffffffffffffffffffffffffffffffffffffff1673ffffffffffffffffffffffffffffffffffffffff1681526020016001820160009054906101000a900473ffffffffffffffffffffffffffffffffffffffff1673ffffffffffffffffffffffffffffffffffffffff1673ffffffffffffffffffffffffffffffffffffffff168152602001600282018054600181600116156101000203166002900480601f01602080910402602001604051908101604052809291908181526020018280546001816001161561010002031660029004801561077b5780601f106107505761010080835404028352916020019161077b565b820191906000526020600020905b81548152906001019060200180831161075e57829003601f168201915b50505050508152505090508573ffffffffffffffffffffffffffffffffffffffff16816020015173ffffffffffffffffffffffffffffffffffffffff16141561080e57806000015183838151811015156107d157fe5b9060200190602002019073ffffffffffffffffffffffffffffffffffffffff16908173ffffffffffffffffffffffffffffffffffffffff16815250505b5080806001019150506105f8565b508092505050919050565b600073ffffffffffffffffffffffffffffffffffffffff168273ffffffffffffffffffffffffffffffffffffffff161415151561086357600080fd5b60608190506000815111151561087857600080fd5b600073ffffffffffffffffffffffffffffffffffffffff166000808573ffffffffffffffffffffffffffffffffffffffff1673ffffffffffffffffffffffffffffffffffffffff16815260200190815260200160002060000160009054906101000a900473ffffffffffffffffffffffffffffffffffffffff1673ffffffffffffffffffffffffffffffffffffffff1614151561091457600080fd5b60016060604051908101604052808573ffffffffffffffffffffffffffffffffffffffff1681526020018673ffffffffffffffffffffffffffffffffffffffff168152602001848152509080600181540180825580915050906001820390600052602060002090600302016000909192909190915060008201518160000160006101000a81548173ffffffffffffffffffffffffffffffffffffffff021916908373ffffffffffffffffffffffffffffffffffffffff16021790555060208201518160010160006101000a81548173ffffffffffffffffffffffffffffffffffffffff021916908373ffffffffffffffffffffffffffffffffffffffff1602179055506040820151816002019080519060200190610a33929190610c52565b5050505050505050565b6000806060610a4a610c04565b6000808673ffffffffffffffffffffffffffffffffffffffff1673ffffffffffffffffffffffffffffffffffffffff168152602001908152602001600020606060405190810160405290816000820160009054906101000a900473ffffffffffffffffffffffffffffffffffffffff1673ffffffffffffffffffffffffffffffffffffffff1673ffffffffffffffffffffffffffffffffffffffff1681526020016001820160009054906101000a900473ffffffffffffffffffffffffffffffffffffffff1673ffffffffffffffffffffffffffffffffffffffff1673ffffffffffffffffffffffffffffffffffffffff168152602001600282018054600181600116156101000203166002900480601f016020809104026020016040519081016040528092919081815260200182805460018160011615610100020316600290048015610bd95780601f10610bae57610100808354040283529160200191610bd9565b820191906000526020600020905b815481529060010190602001808311610bbc57829003601f168201915b5050505050815250509050806000015181602001518260400151809050935093509350509193909250565b606060405190810160405280600073ffffffffffffffffffffffffffffffffffffffff168152602001600073ffffffffffffffffffffffffffffffffffffffff168152602001606081525090565b828054600181600116156101000203166002900490600052602060002090601f016020900481019282601f10610c9357805160ff1916838001178555610cc1565b82800160010185558215610cc1579182015b82811115610cc0578251825591602001919060010190610ca5565b5b509050610cce9190610cd2565b5090565b610cf491905b80821115610cf0576000816000905550600101610cd8565b5090565b9056fea165627a7a723058207948f2071600ad36d2f3eca6913afff892760b34b21014cb5fa73f0c46e479d40029",
  "source": "pragma solidity >=0.4.22 <0.6.0;\n\ncontract  SupplierRegistry{\n    \n/**    \n * a. getSupplierAddress_List()\n * b.--> isValidSupplier(supplier_address) return Supplier_Address_List.contains(supplier_address);\n * c. addSupplier(supplier_address)\n * Modifiers:--> _require(invoker.address == chaingovernance.getGoverningBody())\n * Rules:\n * Action: -->Supplier_Address_List.add(supplier_address)\n * Return: True/False \n */\n    struct Supplier{\n        address supplierAddress;\n        address manufacturerAddress;\n        string supplierName;\n    }\n    \n    mapping(address => Supplier) supplierMap;\n    Supplier []  suppliers;\n    \n    function addSupplier(address _manufacturer_address, address _supplierAddress,\n        string memory _supplierName)public{\n        \n        require(_supplierAddress != address(0));\n        bytes memory strAsBytes = bytes(_supplierName);\n        require(strAsBytes.length > 0);\n        require(supplierMap[_supplierAddress].supplierAddress == address(0));\n        \n        /*supplierMap[_supplierAddress] = Supplier(_supplierAddress, _manufacturer_address, \n        _supplierName);*/\n        suppliers.push(Supplier(_supplierAddress, _manufacturer_address, \n        _supplierName));\n        \n    }\n    \n    function getSupplier(address supplier_address)public view returns(address, address,string memory){\n        \n        Supplier memory supplier = supplierMap[supplier_address];\n        return(supplier.supplierAddress, supplier.manufacturerAddress,\n                supplier.supplierName);\n        \n    }\n    \n    function getAllSuppliersForAManufacturer(address _manufacturer_address) public view returns (address[] memory) {\n        // TODO: Length of this need to be picked up dynamically\n        \n        uint length = 0;\n        if(suppliers.length > 0) {\n            length = suppliers.length;\n        }\n        address[] memory addresses = new address[](length);\n        \n        for (uint i = 0; i < suppliers.length; i++) {\n            Supplier memory aSupplier = suppliers[i];\n            if(aSupplier.manufacturerAddress == _manufacturer_address) {\n                addresses[i] = aSupplier.supplierAddress;\n            }\n        }\n        \n        return (addresses);\n    }\n    \n    function isAValidSupplier(address _seller_address) public view returns (bool) {\n       \n       for (uint i = 0; i < suppliers.length; i++) {\n           Supplier memory aSupplier = suppliers[i];\n           if(aSupplier.supplierAddress == _seller_address) {\n              return true;\n           }\n       }\n       \n       return false;\n   }\n}\n",
  "sourcePath": "/Users/srik/solitude_repo/ChainVoice_Repo/ChaInVoice/truffle_chainvoice/contracts/SupplierRegistry.sol",
  "compiler": {
    "name": "solc",
    "version": "0.5.0+commit.1d4f565a.Emscripten.clang"
  },
  "schemaVersion": "3.0.2",
  "updatedAt": "2019-02-24T08:47:49.098Z",
  "devdoc": {
    "methods": {}
  },
  "userdoc": {
    "methods": {}
  }
}